:1000000040260020AD260000597300008126000024
:1000100081260000812600008126000000000000EB
:10002000000000000000000000000000211F000090
:100030008126000000000000BD1E00008126000097
:10004000DD1F0000DD1F0000DD1F0000DD1F0000C0
:10005000DD1F0000DD1F0000DD1F0000DD1F0000B0
:10006000DD1F0000DD1F0000DD1F0000DD1F0000A0
:10007000DD1F0000DD1F0000DD1F0000DD1F000090
:10008000DD1F0000DD1F0000DD1F0000DD1F000080
:10009000DD1F0000DD1F0000DD1F0000DD1F000070
:1000A000DD1F0000DD1F0000DD1F0000DD1F000060
:1000B000DD1F0000DD1F0000DD1F0000DD1F000050
:1000C000DD1F0000DD1F0000DD1F0000DD1F000040
:1000D000DD1F0000DD1F0000DD1F0000DD1F000030
:1000E000DD1F0000DD1F0000DD1F0000DD1F000020
:1000F000DD1F0000DD1F0000DD1F0000DD1F000010
:1001000053B94AB9002908BF00281CBF4FF0FF317E
:100110004FF0FF3000F00CB8ADF1080C6DE904CEE3
:1001200000F008F8DDF804E0DDE9022304B07047D0
:10013000704700BF2DE9F04786468C460846089E6A
:10014000154674461946002B40F0C2808542B2FA2B
:1001500082F245D94AB1C2F1200300FA02FC2EFA1C
:1001600003F3954043EA0C0C94404FEA154EA8B2B5
:10017000BCFBFEF8230C0EFB18CC08FB00F943EA8D
:100180000C43994528D9EB1808F1FF3704D299455B
:1001900002D9A8F102072B44A3EB0903A4B2B3FBD5
:1001A000FEFC0EFB1C330CFB00F044EA0344A042AF
:1001B00014D92C190CF1FF3304D2A04202D9ACF1AE
:1001C00002032C44241A43EA07401EB1D440002302
:1001D00034607360BDE8F0874746DDE76346F1E7CA
:1001E00092BB431B01214FEA154EAFB2B3FBFEFC9D
:1001F000200C0EFB1C330CFB07F840EA0343984528
:1002000062D9EB180CF1FF3004D2984502D9ACF159
:1002100002002B44A3EB0803A4B2B3FBFEFC0EFBCD
:100220001C330CFB07F744EA0344A7424ED92C19B0
:100230000CF1FF3304D2A74202D9ACF102032C44E3
:10024000E41B43EA0040C0E7C2F1200320FA03F1B7
:10025000954090402EFA03F303434FEA154EAFB298
:10026000B1FBFEFC0EFB1C10190C0CFB07F841EA5D
:100270000041884504FA02F422D969180CF1FF30D4
:1002800004D2884502D9ACF102002944A1EB08014F
:100290009BB2B1FBFEFC0EFB1C110CFB07F743EA03
:1002A00001439F420ED9EB180CF1FF3104D29F425B
:1002B00002D9ACF102012B44DB1B41EA004192E779
:1002C0006046E3E76146F7E76046A3E76346B7E7C2
:1002D000834206D916B9002108467BE7C6E900E04B
:1002E000F9E7B3FA83F78FB9834201D3724508D88F
:1002F000BEEB020460EB030301209C461EB9002103
:1003000068E73846FAE7C6E9004CF8E7C7F1200C81
:10031000BB4022FA0CF41C432EFA0CF120FA0CF329
:10032000B84001434FEA14490EFA07F5B3FBF9F858
:100330001FFA84FE09FB18300B0C08FB0EFA43EA87
:1003400000439A4502FA07F240D9E31808F1FF305A
:1003500004D29A4502D9A8F102002344A3EB0A0370
:1003600089B2B3FBF9F809FB183308FB0EFE41EA2A
:1003700003418E452CD9611808F1FF3304D28E4514
:1003800002D9A8F10203214443EA0040A0FB0298ED
:10039000A1EB0E014145CE46434602D306D14D4561
:1003A00004D2B9EB020E68EB04030138002EA6D08C
:1003B000B5EB0E0261EB030101FA0CFC22FA07F324
:1003C0004CEA0303F940C6E9003198E74046C5E727
:1003D0004346D9E7034613F8012B002AFBD1181A2C
:1003E0000138704710B50B4C2269A168136843F4BB
:1003F000807313600B68084A0821204698472046FE
:1004000007F0EEFA28B921680448BDE8104006F06C
:100410004DBB10BD507E0000010003004C83000066
:1004200010B5144886B00469836869465B689847CC
:1004300000280DD01ADA104B0593022304930023F1
:1004400004AA4FF482510D4801F008F806B010BD1F
:100450002268009B5340DB050AD5094B0593022314
:100460000493002304AA4FF48651ECE70128F4D04A
:10047000044BF3E7507E0000878300002C800000CF
:1004800073830000A783000008B54FF4C87006F01E
:10049000A5FA124807F0A4FAD8B1FFF7A3FF104855
:1004A00003691B68DB0583684FF4807154BF1B69C7
:1004B000DB689847FFF7B4FF4FF4C87006F08EFA78
:1004C0004FF4C87006F08AFA00F00EF840F6B83023
:1004D000F4E7044806F0EAFA002008BD787E000040
:1004E000507E0000BA83000010B588B00D230022B2
:1004F0008DF807300DF107038DF8062002938DF873
:10050000102001230DF10602CDE9052303930723F3
:100510008DF81C300848836802A99C680222772362
:10052000A047014620B1054806F0C0FA08B010BD4A
:100530009DF806100248F7E7787E0000D783000098
:10054000EE8300002DE9F04F91B08407009302F094
:1005500004030293C2F3C20303F10103DDF86890C0
:10056000039205460E46059340F0BA81041D30B152
:10057000072909D86FF01B0011B0BDE8F08F01F01A
:100580000706341DC6F10806009B4FF00008591EEF
:100590004FF0040A4FF0FF330193CDF81080474627
:1005A000C34653460DB1009A22600598002800F317
:1005B000E8809848009A824203D397488242C0F06C
:1005C000E080039AA4EB050E92074FEA9E0000F12B
:1005D00003810F2F00F2B180002D00F0058107F19B
:1005E00040020DEB020C019A0CF8200C0CF8102CB8
:1005F000049801300490E7E07A285DD84B280ED8A3
:10060000472859D829282DD8252852D054D8202811
:100610007AD02338D0F1000B4BEB000B74E04C3850
:100620002E2849D8DFE800F0704848484848484834
:10063000484848484B484848484848484859484B23
:100640004B595959704B6D487048184B184848829F
:100650007F4B48484B487F0000204FF0000B4FF085
:10066000040A38E02A38C0B2012202FA00F010EA87
:100670000E0F49D110F0625C2FD110EA020B43D06B
:100680006046013C5444B4FBFAF40AFB04F4002D28
:1006900061D0A3EB050CA4446645FFF46BAF0028C2
:1006A00068D1042B47D159F8043B23600434042358
:1006B0002AE0019A013A01924FF0000B24E011F870
:1006C000010C6C2834D111F8023C00206C2B8346BD
:1006D000C5D14FF0080A5346D3E709F1070929F0BD
:1006E00007090734F9E802AB24F0070435B106988E
:1006F0002044B0423FF63EAFC4E900AB08344FF0AF
:10070000000B4FF0080A534611F8010F002878D06B
:10071000BBF1000F7FF470AF2528F5D1019B0133A9
:1007200001934FF0010B4FF0040AECE7584694E7B1
:1007300000208346A5E7082B02D06FF015001BE7C9
:1007400009F1070929F00709F9E80223C4E90023A0
:1007500008340823D8E768B9042B02D109F1040949
:10076000A4E7082BE9D109F1070929F0070909F1E4
:100770000809EDE7059A013A059259F8042B009211
:1007800010E7039A900720D5A4EB050E4FEA9E00D0
:100790004FF0010CBEF5007FCFD20F2FCDD8F5B1B1
:1007A00007F140020DEB020EC0B2019A0EF8200CC8
:1007B0000EF8102CBCF1000F3FF41AAF60F07F0070
:1007C0000EF8200C08F101080137C5F108020434C5
:1007D00006924FF6DA7E97E74FF0000CDAE7BCF1AD
:1007E000000F01D00136EFE7029802360028EBD166
:1007F0000098CDE90631FFF7EDFDDDE9063106444D
:10080000E2E7631BB3F5806F97D23DB9A6F1080408
:10081000E018B1E6B87D00000C8E0000029A286056
:100820009B082B709DF81030C2B1EB7085F80280E8
:10083000B8F1000F05D008A80022C5F1010C9742BD
:100840000ED1C5F101030DF120094FF0000A01930B
:100850000DF1300B574512D1601B8DE66B70E5E74B
:1008600010F8013B190608D504EB0C0E764503F091
:100870007F03FFF47FAE04F8013B0132DFE7B8F1FC
:10088000000F03D099F90020002A17DB029BD3B197
:100890001AF80B2004F8012B0022019B9818204421
:1008A0008642FFF467AE99F8000004F8010B009946
:1008B0000392204607F058FA039A14440AF1010AF9
:1008C00009F10109C6E799F8002055F82230009394
:1008D000029B45F822300098FFF77CFD421CDCE7C4
:1008E0006FF00D0048E600BF2DE9F04F95B000AF66
:1008F00090F802B0BB61BB6F7A62C3F3C0030446D9
:100900003B618A4641B9457800780BEB8000204472
:10091000554517D8A0EB040AE3787B61BBF1000FC3
:1009200002D0BB6FD80716D47B6953BB7B6A1BB15F
:10093000BA69514620469847554628465437BD4621
:10094000BDE8F08F461C3046FFF744FD01303044CF
:100950000AF1010ADCE723783B629B00FB603B6AFB
:100960006268FA6104EB83097B6A002B40F0FE8029
:100970005546C84609EB0B0A0026D04551D1D9444B
:1009800013E0BB6F9907D1D523783B6299469B0052
:10099000FB606368FB617B6A04EB8909002B7AD1F9
:1009A0005546BBF1000F4FD15E46BB6F13F0050FEC
:1009B0007B6909EB430ABB6F03F002030CBF4FF0E6
:1009C000020B4FF0010B7B62D145B6D019F8021B28
:1009D00019F8013C54F82380AA4B984502D3AA4B3E
:1009E000984538D33B69002B42D0F86906F037F8B8
:1009F00000283DD0E8468AB06A46A44B5361FB69A3
:100A0000C2E906314FF400731384A14B42F8103F42
:100A1000A04800234FF4125100F020FD023DC546CE
:100A2000D2E718F8013B54F82300FFF7D3FCFB6F23
:100A300001303BB1D7F880309E423EBFFB6F23F8B8
:100A400016000136054498E7BB6F13F004061CBF7F
:100A50007E6AD944A9E73B6923B1F86905F0FFFF35
:100A60000028C7D1BB6FDA0705D4A5EB0B05ABE7B0
:100A70007B6A002BA8D04046FFF7ACFCFB6F43B16C
:100A8000D7F880309E423FBFFA6F431C22F81630E1
:100A90000136054498E7BBF1000F6DD0BB6F13F032
:100AA00004066CD0D846002607F140005A46494655
:100AB00007F05AF97B695B007B607B69D94409EBDD
:100AC0004303BB60BB6F03F002033B60BB684B4555
:100AD00057D1B96F6378B86F890706EB030254BF2B
:100AE0004FEA58010021C507D2B200F19A8010F0F8
:100AF000040F14BF40460020FB616270A070E170DB
:100B0000BA69F9687B6A20469847051EFFF615AF5B
:100B10003B6A2370FB6963707B69E3704146BA6985
:100B20007B6A84F802B007F140009847B0F10008F2
:100B3000C0F2A480FB68BA69AAEB0B01C91A7B68F2
:100B40004846C91A7B6A98470028C0F29980A84491
:100B500008EB00054FF0000B07F1300AB34562D3F4
:100B60000021BA697B6A08469847E6E65E464FF080
:100B7000000807F1300099E75E46D8469AE7B0468C
:100B800098E719F8021B3F4B19F8015C54F825004F
:100B9000984202D33C4B98421DD33B6923B1F8697C
:100BA00005F05DFF002891D13B68FBB908F12803EF
:100BB00007F1280208F1010003EB020C07F15003D2
:100BC00053FA80F008F102080CF8101C5FFA88F85C
:100BD00000F8105C7AE73B692BB1F86905F03FFF3C
:100BE00000287FF473AFBB6FDB0709D506F128033C
:100BF00007F12802711C9E1806F8205CCEB265E74A
:100C0000BB6F58077FF562AF08F1280307F1280290
:100C100008F1010103EB020808F8105C5FFA81F8A3
:100C200054E7002068E71BF80A3087F82F3054F8A3
:100C30002390FB6FFBB133F81B80BA697B6A0121FB
:100C400007F12F00984700281ADB0544B8F1000F80
:100C500006D14846FFF7BEFB00F101081FFA88F8ED
:100C6000BA697B6A414648469847002808DB054434
:100C70000BF1010B72E7D7F87C80DEE745465CE6B6
:100C800005465AE6B87D00000C8E00000084000086
:100C90000400000134800000014B1860704700BF61
:100CA0000000002080B505460E461746984604F021
:100CB000C9FF034607F076F8DFF81890044649F8B4
:100CC0000030424630463946A84754F8090001F042
:100CD0006DFD00BF080000002DE9F047058B0446BC
:100CE0002807904611D4022905F0070540F0CD8071
:100CF000204605F051FF78B10138218B042811D826
:100D0000DFE800F0C3106D85950001290CBF45F0A8
:100D1000100545F02005258388F31188BFF36F8FF8
:100D2000BDE8F08701F0070AAA4500F0A680002779
:100D3000B9463E46A368002B00F0BD8041F0080193
:100D4000218388F31188BFF36F8FA168002900F019
:100D5000BB800D68002900F0B780D1F804803346CD
:100D600052462046C047002D76D02B6829461D46A6
:100D7000F0E701F007035A1F012A1BD8002221F0D7
:100D80000701062B276889B2C4E9002209D13B4636
:100D900003E0628B013262831B68002BF9D141F0C2
:100DA00002012183204605F0F7FE00287BD041F0A8
:100DB000200177E0042B0AD121F0070189B22183B9
:100DC000204605F0E9FE10B141F020012183218B7E
:100DD00001F0070AAA4550D00027B946AAE72369BF
:100DE00021F0070141F00601062DD3F80090218380
:100DF0002DD1B9F1000F40D041F00801218388F3D3
:100E00001188BFF36F8F3A492046C84729E021F087
:100E10000701236941F0040189B2042DD3F804903D
:100E20002183E6D000273E464FF0040A82E721F0F6
:100E30000701236941F0050189B2052DD3F8089017
:100E40002183D6D000273E464FF0050A72E70027DF
:100E50003E464FF0060A6DE72B4687E7B9F1000FD3
:100E6000D1D14FF02003EFF3118883F31288BFF341
:100E70006F8F238B23F008032383258BEA062ED55F
:100E800025F01003238305F007056669218B002EEA
:100E9000BFF66FAF00232768C4E9003321F00701D4
:100EA00041F001012183218B01F0070AAA454FF08F
:100EB00000097FF43FAF002F9BD041F00801218350
:100EC00088F31188BFF36F8F002FC7D03D68394674
:100ED00033465246204605F08BFE2F46F4E7AB061C
:100EE0007FF51AAF25F02003238305F00705FFE601
:100EF0001D6C000008B504464FF02002EFF311838B
:100F000082F31288BFF36F8F02F090FE204601F04B
:100F1000F7FB034805F0CAFD00F0CEFEFCE700BF7A
:100F2000B484000002F0CABE2DE9F047DFF8588013
:100F3000044607464FF0010914B93846BDE8F0876A
:100F400094FAA4F5B5FA85F509FA05F32E0108EB34
:100F500005156FEA030A24EA03042B7B002BEBD070
:100F600058F806301B694BB946440422736828467A
:100F7000196807EA0A0700F05DFADDE72846984796
:100F80000028D9D1F0E700BF8C80000030B51049AF
:100F9000104889B0002206F095FE0F4D0F4900223F
:100FA0000023CDE9062300240E23CDE90334CDE947
:100FB00001440B4B00944FF44072284604F0DCF9D6
:100FC0000849284606F06BFD204609B030BD00BF39
:100FD000E90F0000A8060020200200204015002094
:100FE000D9120000DD840000014804F003BB00BFFB
:100FF000100200202DE9F04780461F480F4606F0FA
:101000000DF90646002830D000252846BDE8F087B7
:10101000237B73B12368DB680BB1204698472368B4
:101020001B69D3B9636804221968204600F002FAEC
:10103000013610344C45EBD3B8F1000FE5D0002D4C
:10104000E2D02846FFF770FF0546002FF7D00021B9
:101050004FF4A47004F0DCFDF1E720469847002827
:10106000E0D00AFA06F31D43E2E7044CDFF81090E3
:1010700005464FF0010ADDE7300800208C800000B3
:101080009C800000014B53F820007047BC8000009A
:1010900008B5034608462BB1044A136000F080FCF3
:1010A000002008BD6FF01500FBE700BF0400002022
:1010B00010B5044C237813B9034804F09BFA0123BC
:1010C000237010BD081100201002002010B5044646
:1010D000084806F0A3F85CB1BFF35B8F064B53E8FA
:1010E000001F013943E80012002AF8D1BFF35B8FDB
:1010F00010BD00BF280800202C0800200020064B4F
:10110000BFF35B8F014653E8000F43E80012002A4B
:10111000F9D1BFF35B8F70472808002070B5FFF747
:10112000EDFF084C084E0546B44200D370BD63681D
:101130005B792BB123685B6813B129462046984739
:101140001034F1E78C8000009C80000010B5044C46
:101150000449204605F0F3FE034B1C6010BD00BFA0
:1011600070010020A880000020080020084A0948DB
:1011700008B500231370084A1360084A4FF4004171
:101180001360FFF785FFBDE80840FFF7DFBF00BF32
:101190000911002019720000280800202C080020E6
:1011A000014600220148002305F0EABE700100203C
:1011B000014805F083BF00BF70010020024B0146CB
:1011C000186805F0CDBF00BF20080020014806F0D8
:1011D00003B800BF7001002070B5284B18780028B4
:1011E0004BD0FFF7E5FF054690B1BFF35B8F244B73
:1011F00053E8001F013943E80012002AF8D1BFF379
:101200005B8F204C204EB4422DD32846FFF7D6FFEB
:101210001E4B1F4C1B68002B19DD06F051FD4FF4CF
:101220007A72A0FB020302FB0131C30BD4E9002058
:1012300043EA41439B1A4FEAD13140F2E93261EB74
:101240000001934271F1000101D3FFF767FFD4E978
:10125000003213F57A7342F10002C4E90032BDE8AE
:101260007040FFF7B3BF63685B7923B123682946F9
:101270001B68204698471034C5E770BD0811002050
:101280002C0800208C8000009C8000002808002092
:10129000A006002070B50D4D297861B90120FFF737
:1012A000A9FE0B4C0B4EB44206D3FFF795FF002866
:1012B000FBD101232B7070BD63685B791BB1236880
:1012C00020469B6898471034EDE700BF09110020C5
:1012D0008C8000009C80000000212DE9F04708462A
:1012E000FFF788FE044658B340F267684FF00009E4
:1012F00006F058FD1B4B1C4A1B58136033B11B4BA7
:101300001B68092B02DD1A4804F074F9194FDFF845
:1013100060A0002544B12046FFF706FE044618B938
:101320004FF0FF384FF0FF39FFF756FF064628B958
:10133000B5B942464B46504604F080F93546E9E7D8
:101340004FF0FF384FF0FF39D2E72B689B691BB194
:1013500000221146284698471035BD42F5D3E8E7EC
:10136000054DFAE708000000240800202C080020A2
:10137000100200209C8000008C80000013B51848EB
:1013800005F04CFF174B1B787BB14FF02003EFF3B8
:10139000118483F31288BFF36F8FFFF71DFF84F36F
:1013A0001188BFF36F8F02B010BD0F4B1B68002B6D
:1013B000F9D050B900220023CDE900230B484FF4A7
:1013C0000042002304F070FEEDE70928EBD1074846
:1013D00006F084FC064802B0BDE8104004F00AB9EB
:1013E0002C0800200911002024080020A806002055
:1013F0001002002010B5064B1B6804469847214692
:10140000A060044805F03AFEBDE81040FFF7B6BF03
:101410000400002070010020044A054B9B1AB1EB28
:10142000D30F34BF52F83100002070470C80000009
:101430008C800000084BC31A10B41B1144680133A0
:10144000237143689A7143681960436801225A7195
:1014500010BCFFF72DBE00BF8C8000002DE9F04FBF
:101460008FB004AFC1F34A28B8600D4691467B6047
:101470000C0DB8F1000F63D0002607F114034FF0F4
:10148000040B4FF00A0AC7F80C80C7E907667E62B2
:101490000193CDF808B0CDF800A007F11C03F9685E
:1014A00032464846FFF720FAB0F5006F03461CD3DA
:1014B0006C468AB0D9F8041004AB2648C3E905018C
:1014C00040F2FF71D9611A464FF400711984224B22
:1014D00042F8103F214833464FF41251FFF7BEFF48
:1014E000A5462C37BD46BDE8F08FC0F30A0804F1CD
:1014F0001700184420F0070080083B60FFF750FEFB
:1015000068F35325044690B13B68154AC7E908368D
:1015100000F1100107F11403F961CDE900A3CDF842
:1015200008B0F96807F11C034846FFF7DDF968F3D6
:1015300053257B68B9682A46204605F0A5FED0E70A
:1015400004F1170020F007008008FFF729FE044689
:10155000EDE700BFF2840000040000015C800000A1
:101560005D7200002DE9F04F87B0DDE91269DDE919
:10157000105A04460F4693469846A6B31021CDF85C
:101580000090334652460020CDF81490FEF7DAFF63
:10159000014605F117000844144B039104F00704B9
:1015A0000BF0070BE40020F0070003EA412344EAB4
:1015B0008B1480081C43FFF7F3FD44EA05540546ED
:1015C00040B13EB10399CDF80090334652461030F9
:1015D000FEF7B8FF434622463946284607B0BDE825
:1015E000F04F05F051BE3146D3E700BF00FE0F00BB
:1015F0000EB403B503AB014653F8042B0448019322
:1016000001F0E8F902B05DF804EB03B0704700BFE9
:10161000EF720000CA0605D48B064CBF024903498D
:10162000FFF7E6BF704700BF32850000318500003C
:101630002DE9F04F89B09A46DDE914739DF84CB05E
:101640000593169B179E069204460D460493BBF124
:10165000000F00F0858006F00803079305F0FCFDFD
:1016600006F002090246002849D086492046FFF7C5
:10167000BFFF8046B9F1000F08D016F0440F40D1EB
:1016800081492A462046FFF7B3FF804406F0010354
:1016900053B17E4B7E4953F82B207E4B2046002AC7
:1016A00008BF1A46FFF7A4FF06F00803002B54D02A
:1016B000794B7A4953F82B202046FFF799FF0546CE
:1016C000069B2BB176491A462046FFF791FF054449
:1016D000BAF1000F05D0734952462046FFF788FF44
:1016E00005444544002F49D1049B002B4FD1F307FB
:1016F00000F1C18031462046FFF78CFFB5E08046FF
:10170000B8E7694B18680028BFD0684B4FF47A7966
:101710001B68B5FBF3F54FF46161B5FBF0F300FB1B
:10172000135509FB05F54FF03C0CB3FBF1F201FB3F
:101730001231B5FBF0FEB1FBFCF300FB1E550CFBB8
:10174000131109FB05F50091B5FBF0F55849CDE9FA
:1017500001E52046FFF74CFF97E706F00805AFE7E5
:10176000BAF1010F06D1002F65D1049B002B7CD06C
:1017700000250CE0002FF8D04E485DE04E484F4960
:101780003B46224605F03AF9049B002B69D0DFF86E
:101790003081DFF83091049F3146102F204628BF5A
:1017A0001027FFF737FF4FF0000A554546DC059B31
:1017B00049461A782046FFF71BFF4FF0010A1AF03E
:1017C000070F03D141462046FFF712FF57453CD98A
:1017D000059B494613F80A202046FFF709FF0AF146
:1017E000010ABAF1100FEAD1374920464FF0000A3A
:1017F000FFF7FEFE5246059B9A5C344B995C11F054
:10180000970F08BF2E2232492046FFF7F1FE0AF15A
:10181000010ABAF1100F1DD01AF0070F03D141468B
:101820002046FFF7E5FE57455246E4D8414620469C
:10183000FFF7DEFEEBE720485D46A0E74146204685
:10184000FFF7D6FE0AF1010AAFE722492046FFF76B
:10185000CFFEC4E7059B3B440593049BDB1B04932D
:1018600099D1BBF1000F7FF442AF204609B0BDE82B
:10187000F04F05F02FBD074A05492046FFF7B8FE97
:1018800038E700BF398500003D850000CC800000AE
:10189000D08A000034850000E080000062850000EE
:1018A000688500006C85000038080020340800209E
:1018B0004685000025730000EF720000D529000066
:1018C00079850000718500007B850000FB8C00009D
:1018D0007D850000778500002DE9F0410F884B6879
:1018E0008E6886B005460C469046C7F382175BB1FA
:1018F000144A9B1A43F3CF01002920DB2078C0F360
:10190000C200FFF789FD03462146608851F8102B7D
:101910000197C2F34A22002A01EB0204C0F30B1024
:1019200008BF00210022CDE90408CDE9021400928D
:1019300031462846FFF77CFE06B0BDE8F081002363
:10194000E2E700BF0C80000073B542F20F738B42D8
:1019500028BF0B4605680F4A04460521684604F077
:10196000C9FD63680C495B6806460B22284605F0F2
:10197000A4FC63683246694628465B6805F09DFC16
:10198000636806495B681B22284605F096FC02B096
:1019900070BD00BF448C00009C8500008085000065
:1019A000074A00210123904206D8064A01B90123C3
:1019B0001360054B1860704740085B000121F2E797
:1019C00040420F003408002038080020014B01225B
:1019D0001A7070470A110020014B002019607047EF
:1019E00050080020024B034801221A7005F072BC17
:1019F0000B110020108100000148FFF7A5BF00BFB8
:101A00001081000010B5064B18680C46FFF73AFB32
:101A100021460346BDE8104002480F22184700BF88
:101A2000500800201081000010B9074B1870704753
:101A3000064B1B781BB141F2883005F0CCBFA420C7
:101A4000002104F0E5B800BF0A1100200B110020AE
:101A50002DE9F843DFF874901D4F80460E460424AC
:101A600099F8005095B903F077FA28463246414676
:101A700003F0F8F9054603F079FAE5B101233B706C
:101A800099F8003073B93046BDE8F88332464146D4
:101A9000002003F0E7F90546EFE72046FFF7C4FF13
:101AA000651E2C46002003F04DFA0028EBD03B7851
:101AB000002BF2D1E7E73B78002BE4D0013C204635
:101AC000FFF7B2FF3B78002BCAD1DCE70B110020F7
:101AD0000A110020014804F065BB00BF208100000E
:101AE00038B5044618B90F4B0F485B6898476168D2
:101AF000B1F5683F10D0B1F5680F0DD00B4DA9427C
:101B00000AD011F46861206807D00146084805F042
:101B10009AFF00232360656038BD142206F032F975
:101B2000F9E700BF04010020D88500002C5F5CA904
:101B3000540D002008B520B34368B3F5683F10D1B9
:101B400001220368BFF35B8F53E8001F002903D114
:101B500043E800200028F7D1BFF35B8F0DD10020B0
:101B600008BD094A93420AD000684FF0FF324FF097
:101B7000FF3303F089FC0028F1D00448F0E7044863
:101B8000EEE76FF4E040EBE72C5F5CA9E98FFFFF25
:101B9000EA8FFFFF08B5D8B14368B3F5683F10D1AD
:101BA00000220368BFF35B8F53E8001F012903D1B4
:101BB00043E800200028F7D1BFF35B8F0BD1002052
:101BC00008BD074A934208D0006803F0D7FCF6E747
:101BD0006FF4E040F4E70348F2E70348F0E700BFA2
:101BE0002C5F5CA9E98FFFFFEA8FFFFF10B5044669
:101BF00018B91D4B1D485B6898476368B3F5683F8B
:101C00002FD0B3F5680F2CD0194A934219D123680D
:101C100003BB18484FF0FF324FF0FF33214603F06B
:101C20003DFB08B923681BB90F4B13485B68984705
:101C300020681422002106F0A5F84FF46863636061
:101C400008E0B3F5683F0DD83A2B03D040F6BA62EE
:101C50009342DED1206805F03BFF636843F03A030E
:101C6000636010BD054AF3E704010020D885000039
:101C70002C5F5CA9540D0020FE8500003A00003A5C
:101C800008B5064906484023142205F0CEFEBDE8FB
:101C900008400449044804F0F7BA00BF5408002083
:101CA000540D0020288100003C81000001491022D1
:101CB0000A60704710ED00E072B6404080F3118872
:101CC000BFF36F8FBFF34F8F30BF62B6BFF36F8F1D
:101CD000704700BF72B6494081F31188BFF34F8F40
:101CE00020BF80F3118862B6704700BF2DE9F0472E
:101CF000814600AF0C4600294CD06E468AB0D1E92F
:101D00000012A3686D462748A8464FF0050AC5E9AA
:101D10000501C5E9072348F810AF234842460023D0
:101D20004FF42151FFF79AFBB546D4E903126369DA
:101D3000AD461E48C5F810A0C5E90501C5E9072351
:101D40001948002342464FF42151FFF787FBB5465F
:101D500088B0E3696D46164AA8464FF0030AC5E904
:101D6000052348F810AF1048002342464FF4C251F3
:101D7000FFF774FBB546A369AD460E4AC5F810A03F
:101D8000C5E905230848002342464FF4C251FFF736
:101D900065FBB5462146484603F0EEF8BD46BDE872
:101DA000F08700BF2B860000748000005A86000078
:101DB000898600009886000040B2002807DB044AAC
:101DC0004109012300F01F00834042F82130704791
:101DD00000E100E040B200280CDB4309064900F0B6
:101DE0001F0020330122824041F82320BFF34F8F90
:101DF000BFF36F8F704700BF00E100E0054B420961
:101E000000F01F0053F82220012303FA00F01040D5
:101E1000704700BF00E100E040B20028A8BF00F119
:101E2000604001F10101B8BF064B4FEA4111ACBF60
:101E300000F5614000F00F00C9B2B4BF195480F83A
:101E40000013704714ED00E030BFFFF7FDBF00BF87
:101E50000B4A08B50B4B22F07F029A60BFF34F8FFD
:101E6000BFF36F8FD3F8882022F47002C3F8882064
:101E700003F040F903F04CFF00F00CFC03F08CF988
:101E80000000000000ED00E0094A0A499368096873
:101E90009967094958674B6843F080534B600023AA
:101EA00083F31188BFF36F8F9368986F704700BFFB
:101EB000000F00209482000000ED00E015498A68C0
:101EC0004FF030001044EFF3098C80E8F01F202021
:101ED00080F31288BFF36F8F0F4F4FF000664A698F
:101EE0008A603E604FF07004141920680B4C20602B
:101EF000506F0023536780F3118804B5104600F03B
:101F000077FCBDE8044002F1300090E8F01F8CF34C
:101F100009887047000F002004ED00E0700D0020DC
:101F20001EF0040F0CBFEFF30880EFF30980816906
:101F300011F8021C0229FFD001B505F005FA01BD18
:101F400042F8203C009B42F81C3C0A49019B42F8A5
:101F5000183C029B42F8143C21F001014FF08073C1
:101F600042F8043C42F8081C0023203A026543670B
:101F7000704700BFA50C0000094A0346906870B185
:101F800013F1160F006E05D0A0F140029A4205D859
:101F9000834203D2814228BF00207047002070474F
:101FA000000F002008B514460A4A0B4B9060026FE0
:101FB0001A600D4600F01CFC204685F309880021BC
:101FC00063B681F31188BFF36F8F00220023FEF701
:101FD00069FE00BF000F0020700D002001B5EFF377
:101FE0000580A0F110004FEAC0000449014409C96E
:101FF0009847BDE801400249084700008C7E000078
:1020000061200000114B124A2DE9F041D518DFF88C
:102010004480013DB5FBF3F55D430F4B08EB030432
:10202000013CB4FBF3F403FB04540E1B07460B49BD
:10203000304605F099FE701942460021083E05F031
:10204000A1FE3E6704F10800BDE8F0810100000038
:102050000000000004000000040000009C8000005C
:10206000044B99685869884203D003494FF0805265
:102070000A607047000F002004ED00E02DE9F041F8
:1020800086B0064600AF0D46474B7B6102244FF4F5
:10209000825146483C6107F1100205F064F9444B57
:1020A0009B6AD9046DD5434B4048C7E9044307F107
:1020B00010024FF4825105F056F917203C4B9B6AF1
:1020C0001A050BD53C4B7B61022338483B6107F175
:1020D00010024FF4825105F046F91820344CA36ADF
:1020E0009B0523D5E846354B7B6102232F483B6196
:1020F00007F110024FF4825105F035F9A36BA26A83
:10210000100412D588B06A462D492848C2E9051343
:10211000032342F8103F4FF4C25105F024F9C5469D
:102120001EB1A36A23F40043A3621920204B9B6ACB
:1021300059050BD5234B7B6102231C483B6107F1FA
:1021400010024FF4825105F00EF91A20184B9A6ACA
:10215000D20518D51C4B7B61022314483B6107F163
:1021600010024FF4825105F0FEF81B20104A936ACA
:1021700043F47F439362183700232B70BD46BDE8BC
:10218000F08116209AE79B6A9B04EFD50F4B7B6189
:10219000022306483B6107F110024FF4825105F01B
:1021A000E2F81C20E2E700BFC68600007480000051
:1021B00000ED00E0DC860000ED86000000870000F6
:1021C000198700002E870000498700006187000002
:1021D00010B586B0364B3748059304AA02244FF455
:1021E0008251049405F0BFF8334B9B6A9A015DD588
:1021F000324B304804AA4FF48251CDE9044305F034
:10220000B2F81E202C4B9B6ADB010AD52C4B2948C7
:10221000059304AA02234FF48251049305F0A3F816
:102220001F20254B9B6A1C030AD5264B214805938A
:1022300004AA02234FF48251049305F094F821205C
:102240001D4B9B6A59030AD51F4B1A48059304AAD4
:1022500002234FF48251049305F085F82220164B97
:102260009B6A9A030AD5194B1248059304AA0223C4
:102270004FF48251049305F076F823200E4B9B6AAD
:10228000DB030AD5124B0B48059304AA02234FF433
:102290008251049305F067F82420074A936A6FEA95
:1022A00003436FEA1343936206B010BD1D20A9E7F4
:1022B000908700007480000000ED00E0A887000017
:1022C000BB870000D5870000F38700001888000056
:1022D000328800002DE9F04786B0814600AF8A467B
:1022E0009046514B7B61022450483C6107F110023B
:1022F0004FF4825105F037F84D4B9B6ADE0645D509
:102300004C4B4A48C7E9044307F110024FF482518D
:10231000112405F028F8464B9B6A1D070BD5464B48
:102320007B61022341483B6107F110024FF4825167
:10233000122405F018F83E4DAB6A980728D56C4674
:102340003E4B7B6102233B614FF48251374807F1DA
:10235000100205F008F86E6BAB6A190660D588B0FC
:102360006A46374B3148C2E90536032342F8103F2D
:102370004FF4C25104F0F7FFA546BAF1000F03D0A5
:10238000AB6A23F08003AB62132403E01024C2E79E
:102390006FF01506264B9B6ADA070BD5294B7B613C
:1023A000022322483B6107F110024FF482511424AA
:1023B00004F0D9FF1E4B9B6A9B060BD5224B7B6119
:1023C00002231A483B6107F110024FF48251152491
:1023D00004F0C9FF164B9A6AD50602D49A6A900790
:1023E0000AD55B68190507D549463046FFF7C4FD95
:1023F00010B180F3098802240D4B9A6A920642BFFD
:102400005A6A22F400525A629A6A42F0FF029A62B1
:1024100020460023183788F80030BD46BDE8F08715
:102420006FF01506B0E700BF5D8800007480000003
:1024300000ED00E073880000ED860000A688000033
:10244000BE880000D4880000618700002DE9F043B9
:102450007A4B8BB0D3F8048000AF0446C8F308056C
:10246000002686F31188BFF36F8F02F07F43B3F12C
:102470007F4F0ED102F00C03082B19D1704BFB617A
:1024800002237048BB6107F118024FF4825104F037
:102490006AFF002634460023FB71EB1E092B00F275
:1024A000AD80DFE803F00AA0A39CABABABABABA65F
:1024B00010074CBF0C460126EDE7E946624BFB6175
:1024C0004FF0020807F118025E48C7F818804FF471
:1024D000825104F048FF0023584DFB71EB6A9A07C4
:1024E0000BD55A4BC7E90683564807F118024FF43B
:1024F000825104F038FF002342E0EB6A002B01DA3E
:10250000534BEFE7EB6A5B00F5D5524B4D48C7E9FB
:10251000068307F118024FF4825104F024FF6B691F
:10252000A26943F480736B61BFF34F8FBFF36F8F6A
:102530006B6932F8022C23F480736B61BFF34F8F09
:10254000BFF36F8F4DF602739A4209D0AB6ADBB2CC
:10255000002B37D0FA1D01212046FFF7BBFE40E0DB
:1025600088B023686A463C493648C2E9051303230C
:1025700042F8103F4FF4C25104F0F5FE2368CD46F7
:10258000FA79DAB907F1080504F1200C20686168CE
:102590002A4603C2083464451546F7D17A6A002EEC
:1025A00047D0C2F3080121B96FEA52226FEA4222F2
:1025B0007A6207F108011846FFF798FB2C37BD46F1
:1025C000BDE8F083AB6A13F47F4F04D0F91D0120FE
:1025D000FFF754FD05E0AB6AB3F5803F8BD3FFF7FF
:1025E000F7FD0346CCE7FA1D0021B5E7F91D0020F1
:1025F000EEE71A4BFB610223BB6175E7184A194BE2
:1026000018F4F87FE8468AB018BF13466A461649A0
:102610000C48C2E905134FF400731384103D134BAB
:10262000D5614FF4115142F8103F04F09CFEC546AD
:1026300061E722F4FF7222F00102B9E700ED00E049
:1026400021890000748000004C890000638900002B
:102650008489000092890000B1890000CD890000C2
:1026600008890000F3880000F189000004000001DF
:10267000024A536943F010035361704700ED00E0D4
:10268000EFF30880EFF3098101B57246FFF7DEFE34
:1026900001BD00BF044800232021C2180133302BA4
:1026A00082F80013F9D1704700E100E0002080F3C8
:1026B0001488BFF36F8FFEF735FC00200D490860CA
:1026C000BFF34F8F0C4880F3088800F03DF82020BE
:1026D00080F3118809484FF40461401880F3098899
:1026E000EFF314800221084380F31488BFF36F8F47
:1026F000FFF7AEFB94ED00E040260020801800209C
:10270000BFF34F8F0549064BCA6802F4E0621343DA
:10271000CB60BFF34F8F00BFFDE700BF00ED00E0CF
:102720000400FA050749D1F890200023C2F30722DC
:102730001846934200DB7047C1F89830C1F8A000FA
:102740000133F6E700ED00E008B572B6002383F32D
:102750001388FFF7E7FF144B4FF0FF32C3F88020D8
:10276000C3F88420C3F88820C3F88C20C3F89020D5
:10277000C3F89420C3F89820C3F89C20C3F88021A4
:10278000C3F88421C3F88821C3F88C21C3F89021B1
:10279000C3F89421C3F89821C3F89C2162B6BFF313
:1027A0004F8FBFF36F8F08BD00E100E0084B9B68BF
:1027B00083420BD1EFF3058343B1064B5A6842F0D5
:1027C00080525A605A6A22F400425A6203F040BAB8
:1027D000000F002000ED00E0024B034A03480121F6
:1027E00000F092B800000420000000204C8100009E
:1027F000026E054B403A1A60044A4021C3E90112B7
:102800001846012100F08AB8740D002000000B1555
:102810002DE9F041DFF8B4E09C4600AF15460023F7
:102820008B421ADA4468002C4DD0BCF1000F1DD049
:10283000661E344215D06C4688B06A462449C2E907
:102840000513032342F8103F224800234FF4C251DE
:10285000FEF704FE6FF01505A5462846BD46BDE807
:10286000F0811F2CE7D902681642E4D1202C0268BF
:1028700086685FFA85F814D9B4F1004F13D8013C8B
:10288000B4FA84F4C4F11F046400B8F1070F46EAF7
:1028900004060AD96C4688B06A460F4BC2E9053572
:1028A000CFE70824F1E73E24EFE722F01F022A4396
:1028B00042F0100246F00106CEF89850CEF89C2067
:1028C0000135CEF8A06001330C30A9E700ED00E03F
:1028D000088A00006C8000002B8A0000044B05224F
:1028E000C3F89420BFF34F8FBFF36F8F704700BFC3
:1028F00000ED00E0BFF35F8F024B0022C3F894208D
:10290000704700BF00ED00E010B5034C01232278B2
:10291000FFF77EFF207010BD1C11002008B5094A8A
:1029200000231278FFF774FF10F1160F03D0064B47
:102930000022072800DD08BDC3F89800C3F8A020D6
:102940000130F6E71C11002000ED00E01449086892
:10295000082810B521D8FFF7CDFF124C4968002296
:10296000904201F10C0105D10F4B1870FFF7B6FF33
:10297000002010BDC4F8982051F80C3C23F01F0330
:10298000134343F01003C4F89C3051F8043C43F067
:102990000103C4F8A0300132E2E74FF0FF30E8E76E
:1029A0005881000000ED00E01C11002008B5024B2A
:1029B0001B689847002008BD800D0020034B044A87
:1029C0001860937843F0020393707047800D0020E5
:1029D00028000020F0B587B007460E4614460021B7
:1029E000102268461D4605F0CDF902238DF802300D
:1029F0002A46054B019321466846CDE9047603F04B
:102A0000A5FD07B0F0BD00BF6D73000008B5064915
:102A1000064821F00701C1F1005202F5802204F0BE
:102A20007EF8002008BD00BF9326002080260020ED
:102A30000E4A0123C2F840354FF080424FF08051DA
:102A4000C2F87835D1F83001082808D1D1F834110E
:102A5000052904D80648415C09B1C2F838364FF060
:102A600080430122C3F880250020704700E0014028
:102A7000608A000020B1034B800143F00103184736
:102A8000704700BFA0800000084B70B5C31A0D4608
:102A900007499B10044659430648402204F08DFC28
:102AA0002B4601462046BDE870401847980D00208F
:102AB000B76DDBB6287E000073B50C4C0C4A402382
:102AC000041B00930D460B460A49A41061430646B9
:102AD000094804F09EFC011E05DA30462B4602B080
:102AE000BDE87040184702B070BD00BF980D0020CF
:102AF0007D740000B76DDBB6287E0000002270B543
:102B0000012104461046FFF787F90F4801F060FAEB
:102B10000E4B984215D104F0BFFD26690C49304692
:102B200004F08AF800280BDB012535642469084984
:102B300004F11C0004F080F8002801DBE5640020AB
:102B400070BD6FF00400FBE7892B00000000AD0BA7
:102B50007881000070B501460C2309484B43C41826
:102B6000D4E90E56403300221844A26304F012FC4C
:102B70002DB132462B460348BDE87040184770BD62
:102B8000980D0020287E000010B1012804D0704765
:102B9000034B1B6C5B0701D1FFF7DCBF704700BF25
:102BA000980D002008B54FF02003EFF3118183F357
:102BB0001288BFF36F8F124A136843F0020010604F
:102BC000DA0708D481F31188BFF36F8F0120BDE8C5
:102BD000084004F06EBD4FF08043D3F80C24D3F8C6
:102BE0000C34DB07EED5074804F0D4FB81F31188E1
:102BF000BFF36F8F0020BDE80840FFF7ABBF00BFF9
:102C0000E80D0020D80D00201FB500220123CDE9DA
:102C10000223094ACDF800D06B46CDF804D004F069
:102C200026FC002805DB4FF480420023684602F0B2
:102C300005FD05B05DF804FB9B74000010B54FF076
:102C40002003EFF3118483F31288BFF36F8F074AD9
:102C5000136823F00201DB07116002D4012004F0A5
:102C600064FD84F31188BFF36F8F10BDE80D002061
:102C70002DE9F0413849BFF35B8F0746012251E847
:102C8000003F41E800200028F9D1BFF35B8F33B942
:102C9000324933484B60CB608A6003F0E0FF7B1E13
:102CA000012B2BD8012F07D14FF08043D3F81C34D0
:102CB00003F00303012B21D004F0EBFE0546F8B925
:102CC000284B1B78E3B14FF080430222C3F808235E
:102CD0000646DFF894804FF08044D4F81824D4F8E6
:102CE0001834D20316D503F00303012B01D0012FB2
:102CF00010D15DB386F31188BFF36F8FBDE8F0810B
:102D00004FF02003EFF3118683F31288BFF36F8F28
:102D10000125DEE7ADB13046FEF7DCFFD4F818350B
:102D2000002BDAD1D4F80421002AD6D0C4F804311B
:102D3000D4F804310123C4F81835C8F88031A360F1
:102D4000CBE70021212002F063FFE7E74FF080434B
:102D50000222C3F80423D1E7940D0020840D002043
:102D6000B40D00203015002000E100E010B5044C47
:102D70002046FDF791FF2046FFF720FE002010BD02
:102D8000852D0000F7B5134E8DF807000446032586
:102D900002F0E2F801220DF10701002002F0A6F88E
:102DA000074602F0E3F827B101233370204603B051
:102DB000F0BD3378002BF9D0013D08D004F069FE56
:102DC0000028E5D10021422002F022FFE0E7357023
:102DD000ECE700BF1D11002030B54068057B01F015
:102DE0001F04B2F5001F85B044EA451405D1204602
:102DF00001F0CAFB002005B030BD0025B2F5800F00
:102E0000CDE9025514D1B3F1007F0CBF0423052393
:102E10008DF808300023194602AA204601F0D0F9A7
:102E2000234B98423DD10121204601F05FFBE1E7B1
:102E3000B3F1C06F27D0B3F1007F14BF0123022389
:102E40008DF80830836823FA01F111F00101E1D116
:102E5000B2F1A07FDED104F01F03620903F5E07335
:102E600013D0012A20D1134A52F82330DB07D1D4E2
:102E70000DF107052946204601F0E2FA0E4B984273
:102E800006D00395C6E70323DAE74FF0A042EBE74D
:102E9000284601F025FB064B9842F2D06FF00B005C
:102EA000A9E76FF01500A6E751F82330FFDE00BF59
:102EB0000000AD0B000300500400AD0B10B501F095
:102EC000FFFA044668B901F0D3FA084B98420AD1D8
:102ED0000748214601F0AEFA224605210620FEF7FA
:102EE0009BFF002010BD6FF00400FBE70000AD0B5E
:102EF000F52E0000420970B5034602D0012A17D012
:102F000070BD0D4E326951680029F9D003F01F03DE
:102F100001250C689D400029F2D08A682A4002D021
:102F20004B68304698472CB1236821461C46F2E78F
:102F3000024EE7E72346F8E7507E00003C7E0000A3
:102F40002DE9FF4147683B7B01F01F0545EA43152A
:102F50000E4628460DF10701144601F071FA14F4EB
:102F6000403F80460DD1284601F034FB3D4B98454B
:102F700003D19DF8070001F0ADFA002004B0BDE8D0
:102F8000F0810023194602AA2846CDE9023301F058
:102F900017F9344B984214D1804503D19DF80700AE
:102FA00001F098FAA3034ED540F206332340B3F55F
:102FB000837F1AD00DD8062B18D005D8B3B1022BB9
:102FC00033D06FF01500D9E7B3F5807FF9D1012335
:102FD0000CE040F20222934229D0B3F5407F28D082
:102FE000B3F5007FEDD1022300E007238DF8083010
:102FF00084F48033C3F30043E0068DF8093054BFF6
:10300000C4F34013032321038DF80A3013D57A68E3
:103010000123B340C2F80835002202A9284601F076
:103020008FF9104B9842A8D0CBE70423DEE70523A5
:10303000DCE70323DAE7620341BF01237A68B34088
:10304000C2F80C35E8E7E3064FF0000354BFC4F3C1
:10305000401403241A4602A928468DF8084001F0BE
:10306000AFF8DEE70000AD0B08B543681B68D3F886
:103070000805D3F80C1501F057FE034B984214BF16
:103080006FF00F00002008BD0000AD0BB0B5044686
:1030900082B0002200AF01210320FEF7BDFE63686D
:1030A0009D693A1D0021284604F04FFA002827DBCD
:1030B0007B682A681979186800F034F900281FDB4A
:1030C00060682369114A00F1080101F0D3FC104B3C
:1030D000984218D023686C4688B06A460D49C2E908
:1030E00005134FF4007393830B4B42F8103F0B48CA
:1030F00000234FF4E251FEF7B1F96FF00F00A5463F
:103100000837BD46B0BD0020FAE700BF21310000FE
:103110000000AD0BB38A00000300000154800000E2
:103120000378012B08D0022B08D04BB9054B0B625A
:1031300001F1100002F05EBA034BF8E7034BF6E72B
:10314000034BF4E70000AD0B0100AE0B0200AE0B29
:103150000100AD0B10B511F001034268046986B09F
:103160000FD1C1F3420001280ED0022815D00D4A1C
:103170000592022204920C4804AA4FF48251FEF7F1
:103180006DF96FF0150006E013684FF0CC72C3F8CC
:1031900024250020616206B010BD13684FF0CD6297
:1031A000F5E700BFD38A0000548000002DE9F04FFE
:1031B0008BB000AF06460C469246BB60D0F8049038
:1031C000D0F810804FF0FF324FF0FF33404602F04E
:1031D00035FA08F11003FB600022002308F110000B
:1031E00002F02CFA484601F089FCDFF804B1002512
:1031F000554501D3002453E0237A3B6013F00801C6
:1032000072D1122207F11600796004F0BBFD3B6811
:103210006068B968B86103F001022068797513F03D
:10322000020F79683A75386216D10AF1FF33AB4262
:1032300002D9237D5B0711D5002A55D1202207F141
:103240001401484601F086FC584509D0294B9842A4
:1032500024D16FF00F0423E00A46F0E74022EEE7A6
:103260000023F8684FF4804202F0E8F9034610B3F7
:103270006C4688B06A46204BC2E90535032342F804
:10328000103F1E4800234FF4C251FEF7E7F84846AE
:10329000A54601F043FC3046FFF7E6FE6FF004045C
:1032A000484601F03BFC404602F0A4F920462C378A
:1032B000BD46BDE8F08FD8F82010594504F10C0444
:1032C00010D06C4688B06A460D48D561C2E9050148
:1032D000042142F8101F09484FF40151FEF7BEF8CF
:1032E000A546DBE7013583E76FF08504D8E700BF2B
:1032F0000000AD0B0B00AD0BE58A00005480000010
:103300000F8B0000036803F01F025B09026004D00A
:10331000012B034818BF002070474FF0A0407047B2
:10332000000300502DE9F04FDFF8849185B0154679
:10333000824600EB81014FF00108514503D1002086
:1033400005B0BDE8F08FDAF8003003F07F04C3F376
:1033500043277F2C4FEA134308BF4FF0FF34222B43
:1033600000F2A380DFE803F012232B442E3544A1A2
:10337000A1A1A14773A1A1A1A1A1A1A1A1A1768110
:103380008487A1A1A18A909396999C00C5F80C45C9
:10339000601C1BD003A80394FFF7B4FF039B08FA3B
:1033A00003F3C0F8083501264FF0010B2CE0C5F8F7
:1033B0001445631C0AD000264FF0000B24E0C5F82A
:1033C0000845E5E7621CC5F808456CD10AF1040A16
:1033D000B3E7631CC5F80C45F8D0012603A8039495
:1033E000FFF790FF039B08FA03F3C0F80C35DBE707
:1033F000C5F81045DDE7C5F80845002FD9D1671C91
:10340000E4D00026B3460627DAF80030019303F42F
:103410000052002A03A81CBF01264FF0000B0394A2
:10342000FFF770FF039A019B00EB8200C3F3C11406
:10343000D0F800273B0243EA840343EA0B0302EA85
:103440000902134343EA4603C0F80037BEE7C5F854
:103450000C45D2E7C5F86045661CDAF80030B5D0F7
:10346000C3F38033002BB8D094E7C5F86445F3E785
:10347000C5F86845F0E7C5F86C45EDE7C5F82445A3
:10348000621CA3D0012697E7C5F8284580E7C5F858
:103490003045F5E7C5F83445F2E7C5F83845EFE7BC
:1034A000C5F83C45ECE7002698E76FF0850047E754
:1034B000F0F8FCFFF0B54B79012B26D0032B21D17E
:1034C00010258B79032B1DD1CE790EB1012E19D188
:1034D0000A7912B1022A15D10E220B684468B3F59D
:1034E000164F276867D02DD8B3F5165F66D016D86B
:1034F000B3F5966F64D00AD8B3F5967F63D0B3F571
:10350000167F63D06FF0850054E00025D9E7B3F54E
:10351000166F5ED0B3F5965FF4D1384B3CE0B3F54F
:10352000E14F59D007D8B3F5615F57D0B3F5964F47
:10353000E8D1334B30E047F61224A342E2D14FF4F6
:10354000000329E0B3F5613F4AD013D8B3F5963FA5
:1035500049D009D84DF6C024A34246D0B3F5614FF7
:10356000D0D14FF46B0317E0B3F5E13FCAD14FF070
:10357000EB7311E0B3F5612F3AD008D8214CA34288
:1035800039D0B3F5E12FBDD14FF0E86304E01E4C14
:10359000A342B7D14FF080530469C7F8243543687C
:1035A00035431B682A43C3F86C2503C9231D83E8F0
:1035B00003000020F0BD4FF41D03EDE7134BEBE7D4
:1035C0004FF49E23E8E74FF4A033E5E74FF41C33B4
:1035D000E2E74FF41D23DFE70D4BDDE70D4BDBE7A3
:1035E0004FF06C73D8E70C4BD6E74FF46503D3E785
:1035F0004FF07063D0E74FF08063CDE700B0130069
:1036000000A04E0090D0030040420F000050270061
:1036100000C0750000F03A0000903A012DE9F04337
:10362000002287B0804601210220FEF7F5FB022030
:10363000FEF7C2FBD8F80470D8F810603C6800218F
:10364000C4F80015C6F80080D7F80C906A464846C2
:1036500003F07BFF051E25DB009BD9F800201979BC
:103660001868FFF75FFE051E1CDB311D4046FFF7A3
:1036700021FF0546B0B97B68990723D506F11800EC
:1036800001F0BCF8234B984210D0234B0593022342
:10369000049322482B4604AA4FF482516FF004058C
:1036A000FDF7DCFE284607B0BDE8F083307E04F16C
:1036B0000C0204F5907103F0E5FF337E0120984081
:1036C00000F01EFC0823C4F800353B7A53B9C4F857
:1036D0001031D4F810317369C4F834350123C4F8BB
:1036E000383523607B689A075CBF4FF48073C4F859
:1036F00004337B68DB0644BF4FF48003C4F8043313
:103700003369C4F844350023C4F848350123A36065
:10371000E360C7E70000AD0B4E8B00008480000023
:10372000F8B5044607690D4604F0B3F9B0B92E4B5D
:103730001B789BB16426606803F03DFF00BB01204D
:1037400003F09EFF013EF6D10021212002F060FA35
:10375000F0E786F31188BFF36F8FF5E74FF0200392
:10376000EFF3118683F31288BFF36F8F60683146E1
:1037700003F021FF90B986F31188BFF36F8FEDE757
:103780004FF02003EFF3118683F31288BFF36F8F9E
:103790006068314603F00FFF0028DAD03B691D70E6
:1037A000626838691368C3F844050120C3F8480506
:1037B0000020C3F82001D3F82051C3F85801526803
:1037C000D3F85801D20608D5626812680820C2F8FA
:1037D00000054FF48002C3F8042301229A6081F3AC
:1037E0001188BFF36F8FF8BD3015002070B501232D
:1037F00083400E4ABFF35B8FDC4352E8001F01EAAF
:10380000040542E80056002EF7D1BFF35B8F4FF45A
:10381000803282400648C0F80823BFF35F8FBFF3B1
:103820006F8F0B4214BF0120002070BD080E0020D6
:103830000010014070B40E49D1E90034D01AC31809
:1038400044F1000422F07F46C1E90034A6F50013DC
:10385000B3F5400F09D2074B1B681A0A1B069C19C7
:10386000054B42F10005C3E9004570BC02F026BBE0
:10387000F00600200C0E0020F806002011B3BFF364
:103880005B8F0123104A834052E800CF4CEA030CBF
:1038900042E800C10029F7D1BFF35B8F0B4A4FF418
:1038A00080338340C2F80433094BBFF35B8F1B683E
:1038B000BFF35B8FC340DB0742BF064B4FF40032C0
:1038C000C3F80021704700BF080E0020001001401F
:1038D000040E002000E100E00D4B1868010A00060C
:1038E000BFF35F8F0B4BD3F80435181841F100017B
:1038F000B3F5801F0AD2084BD3E90023904271EB45
:10390000030303D210F1807041F10001704700BF42
:103910000C0E002000100140F80600202DE9F04FA9
:1039200085B016461F469DF840A00446FFF75EFF8F
:103930000190FFF7D1FFB04271EB070354D23E4B29
:10394000301A67EB0101984271F100014FD23B4BF5
:1039500003EB0413D3E902239F4208BF96425ED0D3
:1039600037494FF4803804F1500508FA04F8AD00E7
:10397000C1F848832046ADB203F066FE26F07F4BC7
:1039800005F1804504F5A87305F58835DC464FF050
:1039900003090293029A2CF07F4341F82230C1F8C8
:1039A0004483D1F80435274A6FF00200C01A6044FE
:1039B00020F07F40904232D9286868B1D1F80435B0
:1039C0000393A3EB0B0020F07F40B0F5000F26D946
:1039D000204603F039FE039BBAF1000F07D109EB33
:1039E000030C09F10109D5E7BAF1000F09D06FF016
:1039F000150520460199FFF741FF284605B0BDE8AF
:103A0000F08F0123104ABFF35B8FA34052E8000FF1
:103A1000184342E800010029F8D1BFF35B8F074942
:103A20000E98230101EB0412C8500F9B5360C2E9AA
:103A300002670025DDE700BF01008000E0060020EE
:103A400000100140FDFF7F00040E00207FB51C4CDC
:103A50001C4BC4F80833C4F848331B4B00254FF007
:103A6000FF304FF0FF31C4F80855C3E902014FF4AD
:103A70008033C4F80433154B02264FF40032012181
:103A8000C4F804631120C3F880212A46FEF7C4F964
:103A90001120FEF791F90E4A0123A3602360136001
:103AA0000C4B0D4A0093CDE9015500232846FFF742
:103AB00035FF3046FFF7DCF8284604B070BD00BF84
:103AC0000010014003000F00E006002000E100E0CC
:103AD000080E002035380000FFFF7F002DE9F74376
:103AE0002F4CD4F8043399070BD5D4F8043143B1E3
:103AF0002C4A0023C4F80431D4F80431136801338C
:103B00001360D4F80433DA032AD5BFF35B8F264B56
:103B100053E8002F22F0010143E800100028F7D1FC
:103B2000BFF35B8FD30702D4D4F84031C3B1002573
:103B3000C4F84051D4F84031FFF7CEFE4FF02003D7
:103B4000EFF3118283F31288BFF36F8F174BD3E922
:103B50000267B042B94106D282F31188BFF36F8F7A
:103B600003B0BDE8F0834FF0FF384FF0FF39C3E9F1
:103B70000289D3E900101D604FF48033C4F8483344
:103B8000C4F84051D4F8403182F31188BFF36F8FED
:103B90000029E5D0009032463B4628468847DFE7BB
:103BA000001001400C0E0020040E0020E006002052
:103BB0001FB5431C23D0012823DD134A134B904229
:103BC000D4BF04461C46FFF787FE114B0F49D3E9CB
:103BD0000023801AB0F5000F28BF002404448C4253
:103BE00028BF0C46A2180B4900914FF00000CDE908
:103BF000010043F10003FFF791FE04B010BD034C38
:103C0000E1E70124DFE700BFFEFF7F00FFFF7F0049
:103C1000F00600203538000008B5FFF75DFE024BC6
:103C20001B68C01A08BD00BFF006002010B5084C84
:103C3000012363601120FEF7CDF8064BC4F808336A
:103C4000C4F84833044B4FF40032C3F8802110BD50
:103C50000010014003000F0000E100E07FB5FDF718
:103C600019FB074B0593022304930648002304AA7B
:103C70004FF48251FDF7F2FB0020FEF741FD00BF3B
:103C80008B8B0000448000004FF08053D3F830212C
:103C9000082A06D1D3F83431052B02D8024AD05C69
:103CA00070470020704700BFAE8B0000024AD2F878
:103CB0000034002BFBD0704700E0014010B54FF0FE
:103CC0008053D3F83021082A4ED14FF08042002192
:103CD000C2F80C11C2F81011C2F8381502F54042B2
:103CE000D3F80414C2F82015D3F80814C2F8241528
:103CF000D3F80C14C2F82815D3F81014C2F82C15F8
:103D0000D3F81414C2F83015D3F81814C2F83415C7
:103D1000D3F81C14C2F84015D3F82014C2F8441587
:103D2000D3F82414C2F84815D3F82814C2F84C1557
:103D3000D3F82C14C2F85015D3F83014C2F8541527
:103D4000D3F83414C2F86015D3F83814C2F86415E7
:103D5000D3F83C14C2F86815D3F84014C2F86C15B7
:103D6000D3F84434C2F87035FFF78EFF18B13A4BE0
:103D70003A4AC3F88C26FFF787FF18B1384BFB226D
:103D8000C3F81825FFF780FF70B14FF080414FF066
:103D90008053D1F8E42ED3F8583222F00F0203F00A
:103DA0000F031343C1F8E43EFFF76EFF20B12D4B24
:103DB0004FF40072C3F840264FF08053D3F83031EF
:103DC000082B1AD14FF08043D3F80024D20744BF08
:103DD0006FF00102C3F800244FF08053D3F8343160
:103DE000052B02D8204AD35C3BB14FF01023D3F807
:103DF00008224FF08043C3F858254FF01023D3F822
:103E00000022002A03DBD3F80432002B22DA174900
:103E100001234FF01020C1F804351224FFF746FFAC
:103E2000C0F80042FFF742FFC0F80442FFF73EFF30
:103E30000023C1F80435FFF739FFBFF34F8F0C495A
:103E40000C4BCA6802F4E0621343CB60BFF34F8FA0
:103E500000BFFDE710BD00BF0050004048810300D7
:103E600000F0004000900240A88B000000E00140FC
:103E700000ED00E00400FA0530B50468CCB1BFF3F2
:103E80005B8FB4FA84F3C3F11F03DBB201229A40C3
:103E900024EA020250E8005FA54204D140E8002C69
:103EA000BCF1000FF6D1BFF35B8FE6D102480B7077
:103EB00030BD0248FCE700BF0000AD0B0200AD0BB7
:103EC00010B50368CB40DB0714D401238B40026894
:103ED000BFF35B8F43EA020150E8004F944204D1E4
:103EE00040E8001CBCF1000FF6D1BFF35B8FEED1B0
:103EF000014810BD0148FCE70000AD0B0400AD0B0C
:103F0000014BC3F80405704700F00140F7B50446C3
:103F100018B1012823D003B0F0BD4FF08043022236
:103F2000C3F80823C3F80401D3F804210122DA609E
:103F3000064601238DF8073042F210754FF0804796
:103F4000D4B1012CE7D1D7F80C3403F48033AEBBE5
:103F500083B3012003F094FB013DF4D12AE04FF03C
:103F600080430022C3F80803C3F80021D3F80021DE
:103F700058600DF10706DCE7D7F8183403F48033F6
:103F80003EB9002BC7D0012003F07AFB013DF3D1ED
:103F9000C1E7D7F8182402F003023260002BBAD030
:103FA0009DF80700012803D103F06AFB013DC7D14A
:103FB000012CB0D1054B00225A71ACE7D7F80C2484
:103FC00002F001023270002BEAD1F3E7100E00205C
:103FD000044B1A7922B9012218609A80024870476E
:103FE00002487047100E00200000AD0B0C00AD0B16
:103FF00010B54FF08043D3F800216AB10022C3F816
:104000000021D3F800210122C3F80823114B58796D
:1040100010B95A711B6898474FF08043D3F80421B8
:1040200072B10022C3F80421D3F80421D3F8182474
:10403000D3F81824920704D10122C3F818259A60F6
:1040400010BD0222C3F80823024BBDE810401B68D4
:1040500001201847100E0020036803F01F025B09BF
:10406000026004D0012B034818BF002070474FF0B6
:10407000A040704700030050034A430900F01F00AE
:10408000D35C1844C0B27047BF8B000008B5FFF77F
:10409000F3FF034B083033F81000C0F3401008BDA5
:1040A0007C00002008B5FFF7E7FF034B083033F82A
:1040B0001000C0F3400008BD7C00002008B5FFF7E9
:1040C000DBFF034B083033F81000400B08BD00BF86
:1040D0007C00002070B50546FFF7CEFF0C4C083081
:1040E0000E4634F81030DA0508D5C3F3432304EB49
:1040F000C302284654F8333052689847A3682BB15E
:10410000E26831462846BDE87040184770BD00BFE0
:104110007C00002010B5FFF7AFFF124A083032F8DC
:104120001030D9051CD5C3F3432123F4F85322F8EA
:10413000103002F10E04002034F8023F13F4807FA7
:1041400003D0C3F3432399420AD001303028F3D17E
:10415000002342F831300448BDE81040FFF7B0BEFC
:1041600010BD00BF7C000020F0000020F0B501462B
:10417000104A114C00200125064602F14043A3F5E8
:10418000C2439B0805FA03F3194204D0176817B11C
:104190001660176818430432A242EED1074BD3F8D9
:1041A0007C2132B10022C3F87C21D3F87C3140F06D
:1041B0000040F0BD00610040206100400060004010
:1041C0002DE9F04385B0054690461E46FFF754FFA3
:1041D000044609B32846FFF765FF18B12846FFF7E4
:1041E00055FF38BB0023CDE900338DF80E308DF834
:1041F0000F300DF10F020B4628460DF10E0103F0B2
:1042000096FA4A4A04F1080132F8113023F0020309
:1042100043F0010322F81130B8F1000F31D02846E5
:1042200098F80070D8F80490FFF73CFF20B1B9F17E
:10423000000F1BD03E4826E03C4B04F1080C33F83D
:104240001C1021F02001C904C90C23F81C10B9F17D
:10425000000F0BD0032FEDD8D8F8042092F800E01F
:10426000A7B9344B0EF5A27E43F82E702F4A04F105
:10427000080132F8113023F01C0343EA870322F8C7
:1042800011304EBB2C4805B0BDE8F0834FEA8E02DA
:1042900002F1804202F5C04241EA4E31D2F81005E7
:1042A00020F00300C2F81005D2F8100520F44F30BA
:1042B00020F44070C2F81005D2F81085280200F4EE
:1042C0007C5040EA080040EA074041F0200123F812
:1042D0001C10C2F81005C9E7D6E900762846FFF79A
:1042E00019FF002FCED0114DD5E90023974201D1FF
:1042F0009E4218D011480DF10F01FFF7BDFD0E4B86
:104300009842C0D19DF80F2045F8327005EBC203EA
:1043100008345E6035F8143043EA422343F4807376
:1043200025F81430AEE70022EEE700BF7C00002045
:104330000400AD0B006000400000AD0BF000002059
:104340002DE9FF4104461646FFF796FE054631B3B8
:104350002046FFF7A7FE20B92046FFF797FE00286A
:1043600060D1314F05F1080837F8183013F01C0FF1
:1043700002D04B78012B55D001238DF80F3000234C
:10438000CDE900134A1C8B1C20460DF10F0103F0F0
:10439000CEF937F8183043F0030327F818301EB968
:1043A000224804B0BDE8F0812046FFF77BFEC8B389
:1043B0001D4F96F800C005F10800614637F810500F
:1043C000890025F0200501F18041ED0401F5C0418F
:1043D000ED0C27F810500023C1F810357278002A30
:1043E000DED0D1F81035B67823F4991323F4F853BE
:1043F000C1F8103512042302D1F810E502F440325E
:1044000003F47C531343320543EA0E0302F4801293
:1044100045EA4C35134345F0200527F81050C1F804
:104420001035BDE70248BCE77C0000200000AD0B62
:104430000400AD0B014BC3E9020170477C00002072
:1044400010B50446FFF722FE50B12046FFF714FED8
:10445000044B083033F8103003485B0B0B7010BD71
:104460000248FCE77C0000200000AD0B0400AD0B0F
:1044700070B50F4C94F87860BEB90E4D602231468D
:1044800004F1100003F07EFCC5F87C610620D5F82D
:104490007C31FDF791FC4FF00043C5F8043306482A
:1044A000012384F87830636770BD0448FCE700BFDF
:1044B0007C000020006000400000AD0B0500AD0B4B
:1044C000034B93F87800003818BF0120704700BFF5
:1044D0007C00002001460148FFF7F2BCEC00002000
:1044E00001460148FFF7C8BCEC00002037B5044680
:1044F000FFF7CCFD08B32046FFF7D4FD0546E0B931
:104500002046FFF7DBFD03B29B0003F1804202F57A
:10451000C24203F1804303F5C04315601268D3F82B
:10452000102542F00102C3F8102521B1144A0123DD
:104530008340C2F8043303B030BD2046FFF79CFD32
:10454000104B083033F81030C3F38203042B12D021
:10455000052B12D001A80194FFF77EFD019BD0F836
:104560001015D94001F001010231204603B0BDE829
:10457000304003F025B90321F7E70221F5E700BF3A
:10458000006000407C00002010B50446FFF77EFD6F
:10459000C0B12046FFF786FDA0B92046FFF78EFD8B
:1045A0000B4A01238340C2F8083303B29B0003F196
:1045B000804303F5C043D3F8102522F00302C3F86B
:1045C000102510BD20460021BDE8104003F0F8B8CA
:1045D0000060004073B50446FFF74EFD184E00F131
:1045E000080536F81530DB0727D52046FFF7CCFF46
:1045F0002046FFF74BFD40B12046FFF75FFD114B12
:1046000000F5A270002243F820202046FFF782FD2B
:10461000002301A826F815300194FFF71DFD019B2A
:1046200000EB8300084BD0F80027134043F002034F
:10463000C0F80037054802B070BD0548FBE700BF71
:104640007C00002000600040F0F8FCFF0000AD0B93
:104650000400AD0B2DE9F04F644BD3F80403C0B256
:1046600085B040F00040FFF781FD051E80F2A1807B
:104670004FF0A043D3F820250292C3F82025D3F8A9
:1046800020280392C3F820280DF108084FF00009F4
:10469000574B09EB030B4FE093FAA3FA9BF800404A
:1046A000BAFA8AFA4AEA44142046FFF7E5FC514B6D
:1046B000019408304FEADA0233F810700AF0070369
:1046C0000120984018F8023023EA000308F802306D
:1046D00001A8FFF7C1FC019B03F5E073B90850F88E
:1046E0002330C7F38206C3F3014A4B0737462FD561
:1046F00020463146FFF7EEFC01A80194FFF7ACFC21
:10470000019B03F5E0735FFA8AFA50F82330C3F394
:1047100001439A4507D10021204603F051F8514644
:10472000204603F04DF801A80194FFF795FC019A8B
:1047300001239340C0F82035D8F80030002BABD1CE
:1047400008F10408B9F1000F1DD14FF001099FE7EE
:10475000BAF1020F0CD10321204603F031F806F024
:104760000503012BDFD139462046FFF7B3FCDAE71A
:104770000221204603F024F8032EF4D0BAF1030FEF
:10478000D1D1022EEEE74FF00040FFF7EFFC4FF0E3
:10479000A0421949D2F820350293C2F82035D1F849
:1047A000202503921343C1F820257FF46DAF25F037
:1047B0000045012415B905B0BDE8F08F95FAA5F3C1
:1047C000B3FA83F304FA03F29B0003F1804303F589
:1047D000C04325EA0205D3F81005D3F81015C0F33D
:1047E0000520C1F30141FFF775FCE3E700600040DD
:1047F000CF8B00007C0000200003005001460148E0
:10480000FFF73ABBF800002030B500F01F04400964
:1048100011D0012812D10C4800EB84001B02D0F803
:1048200000570A4C43EA82022C4042EA41012143EC
:10483000C0F8001730BD4FF0A040EDE704F5E0747C
:10484000002353F82430FFDE00030050F0F8FCFF93
:10485000CB7B10B433B9D1E900420368C3F80845F3
:10486000C3F80C2503688A68C3F8242503793C2221
:104870005343054AD3582BB1006810BC40F30730AE
:10488000FDF79ABA10BC7047180E002013B53B4BC9
:1048900001930023C0F80431D0F80421C0F824317A
:1048A000D0F82421C0F81C31D0F81C21C0F8083100
:1048B000D0F80821C0F800324B6381F82F30012373
:1048C000036291F82D209A4218BF83604B6B8A6A6D
:1048D000934204460ED24A6AD35CC0F81C350B687A
:1048E00003B340F286238B608B682548C4F80433F9
:1048F00002B010BD91F82C3013B10123C361EEE773
:104900000B6A13F0400F4FF0010316BFC361436100
:1049100081F82D30E3E7204602F061FF28B1019BCA
:10492000013B0193019B002BF5DC91F82F305BB923
:104930001348019B002BDBDC0023C4F80035052362
:104940001048C4F80035D3E7D4F8C434C4F8C434EC
:104950008BB10D4A0B4813F0010F18BF104613F02E
:10496000020F02F1010218BF104613F0040F074BAB
:1049700018BF1846DDE70348DBE700BFA08601004B
:104980000000AD0B0100AD0B0000AE0B0200AE0B42
:1049900013B5334B01930023C0F80431D0F8042140
:1049A000C0F82431D0F82421C0F81C31D0F81C21E3
:1049B000C0F80831D0F808214B6381F82F308B6A9A
:1049C000012B044617D10B6A5B0614D40223C4F8EA
:1049D00000320123236291F82D20022A18BF2360A0
:1049E0000B688BB140F286238B608B681D48C4F83E
:1049F000043302B010BD0123E9E7204602F0EFFEC8
:104A000028B1019B013B0193019B002BF5DC91F840
:104A10002F305BB91348019B002BEADC0023C4F85C
:104A2000003505231048C4F80035E2E7D4F8C43453
:104A3000C4F8C4348BB10D4A0B4813F0010F18BFF2
:104A4000104613F0020F02F1010218BF104613F0D6
:104A5000040F074B18BF1846DDE70348DBE700BF2C
:104A6000A08601000000AD0B0100AD0B0000AE0BF5
:104A70000200AE0B2DE9F84390F804901C4E074657
:104A80003C2000FB09F035180C4695F82E1061BB50
:104A9000A96032506B6085F82D1085F8311085F8CB
:104AA0003010CCB1637B85F8383094F80E8085F8EF
:104AB0003980B8F1000F0BD120680623032241464C
:104AC000FFF7A2FE6068062303224146FFF79CFE23
:104AD00021463846FFF7BCFE3C2303FB0966054828
:104AE000012386F82E30BDE8F8830348FBE700BFBA
:104AF000180E00200000AD0B0500AD0B0368027915
:104B00000521C3F80015044B3C2101FB02330222AE
:104B100083F82E20704700BF180E002003680B4A50
:104B20000179C3F80823D3F8002222F00302C3F866
:104B300000220022C3F80025054B3C2000FB013376
:104B4000012183F82E1083F830207047864204003C
:104B5000180E00202DE9F047314F0479D0F800906D
:104B60003C2303FB04730D4693F82D30012B944630
:104B700004D10B78012B06D12A4811E0022B02D177
:104B80000B78012BF8D13C26274BC9F8083306FBDC
:104B9000047696F830302BB1B3682448C9F8043352
:104BA000BDE8F0878CF00403C3F3800386F830304F
:104BB000C6F820C0A846B8E80F0006F10C0EAEE813
:104BC0000F00D8F80030CEF800306B68B362EB68A5
:104BD00073626B78C9F888352B78C4EB041A012B03
:104BE00007EB8A0A17D09BB9CCF3401C3C2303FB8C
:104BF00004735146484683F82CC0FFF747FE3C2318
:104C00005C433A193B59002BCAD182F83030C7E7D0
:104C10004FF0010CEAE751464846FFF7B9FEEEE7D0
:104C2000180E00200500AD0B864204000B00AD0BF2
:104C3000F0B5324C324887B0214602F0D0FD002852
:104C400059D194F82F70FFB9227B931E012B1BD8EA
:104C5000606AA369984217D1E36963626369A362DA
:104C6000236A274884F82D70C3F34013032A84F87D
:104C70002C3004D107B0BDE8F040FFF707BE07B005
:104C8000BDE8F040FFF784BE1E4E0FCE01AD0FC54C
:104C900033682B6047B31A4AD2F8C434C2F8C4341C
:104CA00013F0020106D001238DF80030002384F8B0
:104CB000303007E013F0040209D002238DF80030F1
:104CC00084F83010D4E900316846984713E013F0B7
:104CD000010305D003238DF8003084F83020F1E77C
:104CE00004228DF80020E2E7236A8DF800705B074C
:104CF00084F83070E6D507B0F0BD00BF180E002074
:104D000000300040240E0020036803F01F025B09FE
:104D1000026004D0012B034818BF002070474FF0F9
:104D2000A040704700030050F7B5064602F0EFFDC3
:104D3000084602F0ECFD01A80196FFF7E5FF019B94
:104D40002E4D00EB83000C46D0F80037019440F262
:104D50000D612B400B43C0F8003701A8FFF7D4FFCB
:104D6000019B00EB83000127D0F800372B400B4359
:104D7000C0F80037042002F083FC092501A8019443
:104D8000FFF7C2FF019AD0F81035D340DB0715D4E6
:104D900001A80196FFF7B8FF019B07FA03F3C0F8DB
:104DA0000C35042002F06CFC304602F0B0FD013DF1
:104DB000042002F065FC15F0FF05DFD101A8019485
:104DC000FFF7A2FF019A01239340C0F80C3504209D
:104DD00002F056FC204602F09AFD042002F050FC3E
:104DE00001A80194FFF790FF019AD0F8103504480C
:104DF000D34003F00103C01A03B0F0BDF0F8FCFF8C
:104E00000100AD0B08B5124BA8220021184602F094
:104E1000B9FF032202610F4942610F4A8161C261F9
:104E20004FF480620262002282624262C2620166C4
:104E30000A49416610218166094902670346C26634
:104E4000426711F8010D98540132102AF9D108BDBA
:104E5000540E0020EF8B00003011002020110020A4
:104E6000088C00002DE9F84FDFF87C80182606FB3F
:104E7000008E00FB06664644DEF82440DEF828C0BB
:104E80007368A44507468946154603EB040022D8FB
:104E9000DEF820B0ABEB040A0AF1FF339A4203D8E4
:104EA00002F062FF2C440FE063449A4219D8524644
:104EB0002C4402F059FFB4EB0B0405D07068224675
:104EC00009EB0A0102F050FF182303FB07830120BE
:104ED0005C62BDE8F88F0CF1FF3CACEB040C944530
:104EE000DED20020F5E700BF540E0020F8B5144BC9
:104EF000182700FB07751D4407FB00330E46DB6ACD
:104F0000012B14460AD0022B14D023B9284602F0F4
:104F10000BFD844208D900242046F8BD284602F043
:104F200003FD844228BF044622463146284602F04B
:104F300004FDF1E72846BDE8F84002F01BBD00BFC4
:104F4000540E0020034B182202FB00339A6A586A61
:104F5000801A7047540E002003484FF0FF324FF084
:104F6000FF3300F091BA00BFE8010020014800F0D3
:104F700005BB00BFE80100202DE9F04786B00446DC
:104F800000AF0D464FF02003EFF3118883F3128832
:104F9000BFF36F8F02F006FF2D4B042C1E5896BFF7
:104FA0002C4B2D4B53F82430E9468AB06A462B49E6
:104FB000D36140F2013393844FF0000A284BC2F8CA
:104FC00020A0C2E9051442F8103F264853464FF48A
:104FD0003151FCF743FACD467DB1EB69C3F30803C9
:104FE0005BB1214B7B6102233B611E48534607F1B5
:104FF00010024FF48251FCF731FA2EB1304602F024
:1050000051FD08B1037803B91848E9468AB06A46E9
:10501000174BD061C2E9053640F201331384154BBA
:1050200042F8103F00230F484FF41151FCF716FAD5
:105030002946CD462046FEF711FE88F31188BFF3BE
:105040006F8F3046FDF7B2FB1837BD46BDE8F087DD
:105050000800000098820000098C00001F8C0000EE
:105060000500000174800000478C0000178C0000D0
:10507000688C000004000001104B70B553F820400C
:10508000013053F82060A64200D870BDD4E9003545
:1050900095B153B12846984738B10028B8BF40426F
:1050A000EB68FF28A8BFFF201870EA68537843F028
:1050B000010353700834E6E79847FBE7AC82000031
:1050C00008B50A4B012203201A70FFF7D5FF01F043
:1050D0001BF80420FFF7D0FF00F07AF9FBF7D4F9B2
:1050E000034A137B23F00103137308BD301500201E
:1050F0008007002008B50348034A0021121A02F075
:105100007AFC08BD200200203415002070B5002371
:1051100086B00122CDE90423194E1A4D01930F22C6
:10512000CDE902321849142303FB005506EBC016E3
:1051300004464FF4C070154B00954FF4A07200FB6D
:105140000411304600F0D8F8737B114AEE6023F06A
:10515000040373734FF4046304FB033313446B6061
:105160000C4B2C74BFF35B8F53E8001F013143E8F5
:105170000012002AF8D1BFF35B8F06B070BD00BFEC
:1051800000070020000F0020C0200020A97A0000A6
:1051900080180020FC0E002080B50020A6B0FFF78C
:1051A0006BFF2E4B83F308882D4D2E4E6B692E4FCF
:1051B00043F400736B610024E02385F82230EC7720
:1051C0002C766C76AC7685F820406B6A43F4E0234D
:1051D0006B6285F82340FDF74BFAFCF767FD4FF053
:1051E000FF33AB62EB62FDF7B1FBFDF7F5FAFBF7BE
:1051F000BDFF40F20113ADF8243006ABB360CDE93A
:105200001E44219402F0EBFB0120FFF735FF022042
:10521000164DFFF731FF00F071FC154B75610593DA
:10522000012314490094CDE903434FF480623B46C7
:10523000CDE90144284600F05FF86A7B064622F07B
:10524000040228466A7302F090FC2046FFF75EFFD6
:105250003A4631462846FCF7A5FE00BFC020002094
:1052600000ED00E0000F0020C1500000800700208A
:10527000CA8C00004022002038B5064C064D0020A4
:10528000AC4200D338BD204602F0B9FB0028F9DB60
:105290001C34F5E7AC010020AC01002073B50C46CE
:1052A0004FF02005EFF3118185F31288BFF36F8F64
:1052B00045695DB125602B68436183690133836172
:1052C000002081F31188BFF36F8F11E052EA0306CB
:1052D00003D125606FF00B00F3E7CDE90023024610
:1052E000083000F015FB18B9024B9B685B6923601E
:1052F00002B070BD000F00202DE9F04385B00732E9
:10530000994600F1580322F00706C0E91633109BB6
:10531000037306F140050423002743730D440F9BDC
:1053200083738846C0E9067729468760C7730446B9
:10533000FCF768FE08F140030730C4E9183620F096
:1053400007000E9BA06602930D9B01932D1A0C9BE8
:1053500000932A464B4641462046FCF7F1FD054B9B
:1053600067659B6803B1DB6EE366284605B0BDE860
:10537000F08300BF000F0020F0B587B00025059531
:10538000109D04950F9D03950E9D0295DDE9127603
:105390000D9D01950C9D00950446FFF7ADFFB6F1FC
:1053A000FF3F08BFB7F1FF3F05D056EA070305D11D
:1053B000204600F023FB204607B0F0BD03493A46E3
:1053C000334604F1180000F003FDF4E7F37B00001E
:1053D0002DE9F043294C2A4D87B02646AE4204F110
:1053E0002C040FD300F05AFB244CDFF898904FF4B4
:1053F000004640F2E737AC4220D307B0BDE8F043A7
:1054000000F060BB54F8043C059354F80C3C049342
:1054100054F8103C039354F8143C029354F8183C8D
:10542000019354F81C3C009354E9092354E90B01FF
:10543000FFF762FF54F82C3C5E65CEE7636A5A1CA6
:105440000DD023EAE37300213846C3FB060151EA7D
:10545000C333D4F8008004D1404600F0CFFA2C3496
:10546000C9E74FF47A720023FAF74AFE02460B4668
:1054700008F11800494600F0ABFCF0E70C80000092
:105480000C800000F37B00002DE9F3410446174631
:105490001E464FF02003EFF3118883F31288BFF309
:1054A0006F8FC368334A7BB180689168884219D096
:1054B00057EA060318D188F31188BFF36F8F6FF096
:1054C0000F0002B0BDE8F081916891F90E102161E2
:1054D0000133E3609368A36088F31188BFF36F8F93
:1054E0000020EEE72169F2E791F90E1090F90E30F5
:1054F0009942A8BF19466FF07E029142B8BF11468B
:105500008B422EDD02F0DCFA0546CDE900761A4822
:105510002246414600F0FCF90028E1D04FF020037C
:10552000EFF3118683F31288BFF36F8FA068D0B1B9
:10553000236821699C420AD04BB193F90E309942FD
:10554000A8BF19466FF07E039942B8BF194602F012
:10555000B7FA40B10848314600F03EFA6FF00A0051
:10556000AFE70025D1E7002DF4D186F31188BFF312
:105570006F8FF3E7000F00203115002038B58368E6
:1055800004466BB3194A926893422CD1C368012B2D
:1055900003D9013BC360002038BD4FF02003EFF377
:1055A000118583F31288BFF36F8F0169806802F061
:1055B00087FA204602F038FBA06058B190F90E201F
:1055C00022610022826702F0D0FA0948294600F0E1
:1055D00003FAE0E7E06085F31188BFF36F8FDAE745
:1055E0006FF01500D8E74FF0FF30D5E7000F00202F
:1055F0003115002038B504464FF02003EFF3118534
:1056000083F31288BFF36F8F02F00EFB48B10022C4
:10561000826702F0AAFA29460748BDE8384000F040
:10562000DBB9D4E902329A4218BF0133A36085F393
:105630001188BFF36F8F38BD3115002013B54FF0BF
:105640002004EFF3118184F31288BFF36F8F846815
:1056500044B1013C846081F31188BFF36F8F002057
:1056600002B010BD52EA030406D181F31188BFF3E2
:105670006F8F6FF00F00F3E7CDE900230246024879
:1056800000F046F9ECE700BF31150020C3897F2BFD
:1056900012D80A4B1B6863B1094B90F90E201B68A6
:1056A0009A4209DB437BDB0606D1064BC31A18BFBF
:1056B000012303F0010070470023FAE7280F0020C0
:1056C000240F002000070020044BC01A044BC01018
:1056D0005843044B01221A54704700BF00080020B1
:1056E000ABAAAAAA3115002070B50E4B0E4C1E7C39
:1056F00006EB460304EBC3040546204602F0C6FA57
:105700000A4B002228469A55FFF7C0FF48B1084BC4
:1057100008491A68013A2046D317BDE8704000F0E6
:1057200057BB70BD000F002000080020311500207D
:10573000280F0020C956000038B50D4D2B4653F8F0
:10574000184F9C4200D004B9EC68AB6838B95A7B5A
:10575000D20604D1A26912B9DA897F2A05D89C42FF
:1057600002D02046FFF7C0FF23466B6138BD00BF63
:10577000000F002070B590F90D20437B002A0146F0
:1057800004DA03F07F03437302F0B5F94B7B154A4B
:1057900063F07F0310464B7350F8183FD46983427F
:1057A00008BF002323B9C1E900042160D1610CE0E6
:1057B00091F90E5093F90E60B5420ED0AE420CDD59
:1057C0005868C1E90030016059609068431A584236
:1057D000BDE870405841FFF7AFBF9C42E3D01B6863
:1057E000E0E700BF000F002070B490F90D30427B5D
:1057F000002B29DBD30627D183692BBB134962F029
:105800007F0242730A4652F8184F944218BF23464B
:10581000CC6923B9C0E900242060C8610CE090F98C
:105820000E5093F90E60B5420AD0AE4208DD5A68B8
:10583000C0E900321060586070BC0020FFF77CBFE8
:10584000A342E7D01B68E4E770BC7047000F00205C
:1058500008B590F90D20437B002A014604DA03F0D5
:105860007F03437302F047F9044B9868431A584288
:105870005841BDE80840FFF75FBF00BF000F0020A0
:1058800070B515461C46064602F047F9B4F1FF3FD5
:1058900008BFB5F1FF3F08D02A46234606F118009D
:1058A0000249BDE8704000F093BA70BDF37B000080
:1058B00038B54FF02003EFF3118583F31288BFF35F
:1058C0006F8F104B104A9C681068A04206D1FFF7FA
:1058D0000BFF85F31188BFF36F8F38BD00211B7C50
:1058E00011600A4AD35C002BF3D02046FFF7CEFEAE
:1058F0000028EED0637BDB0602D12046FFF73AFF9B
:105900002046E4E7000F0020200F00203115002082
:1059100070B50C480C4D86682E600C461146DDE9CA
:1059200004234FF02006EFF3118586F31288BFF3AE
:105930006F8F8068FFF7A4FF2046BDE87040FCF73A
:10594000A3BA00BF000F0020200F0020F8B50446C6
:105950004FF02003EFF3118683F31288BFF36F8FAC
:10596000437BDA0649B219D18569BDB903F07F03DB
:10597000437302F0C0F8437B164A817363F07F03E0
:105980004373134653F8180F984218BF0546D06961
:105990005DB9C4E900300460D46111E0A173002056
:1059A00086F31188BFF36F8FF8BD95F90E70B94279
:1059B0000BD08F4209DD6B68C4E900531C606C603A
:1059C0000120FFF7B9FE0120EAE7A842E1D02D68E7
:1059D000DEE700BF000F002049B9EFF3058030B9C2
:1059E000054B5A699B689A4201D0FCF74DBA81F386
:1059F0001188BFF36F8F7047000F002010B54FF074
:105A00002002EFF3118482F31288BFF36F8F427B81
:105A1000510704D484F31188BFF36F8F10BD22F0B7
:105A200004024273FFF7E0FE21460248BDE8104041
:105A3000FFF7D2BF3215002070B50446183002F0CF
:105A400025F94FF02003EFF3118683F31288BFF39B
:105A50006F8F94F90D20637B002A05DA03F07F0332
:105A60006373204602F047F80B4D637BA86843F050
:105A700010036373031B58425841FFF75DFE86F322
:105A80001188BFF36F8FAB68A34203D1BDE87040AC
:105A900002F0F2B870BD00BF000F00204FF02003ED
:105AA000EFF3118183F31288BFF36F8F044B9A6871
:105AB000D37B013BD37381F31188BFF36F8F7047A2
:105AC000000F002010B54FF02003EFF3118483F393
:105AD0001288BFF36F8F084B9A68D37B0133D3735F
